:100000000C942D010C9455010C9455010C94550140
:100010000C9455010C9455010C9455010C94550108
:100020000C9455010C9455010C9437040C94BE04A7
:100030000C9455010C9455010C9455010C945501E8
:100040000C9455010C9455010C9455010C945501D8
:100050000C9455010C9455010C9455010C941A06FE
:100060000C9455010C9455010C9455010C945501B8
:100070000C9455010C9455010C9455010C945501A8
:100080000C9455010C9455010C9455010C94550198
:100090000C9455010C9455010C9455010C94550188
:1000A0000C9455010C9455010C945501080B000259
:1000B0000202010009040000010202000005240000
:1000C0001001052401010104240206052406000193
:1000D0000705810310004009040100020A00000026
:1000E00007050202400000070583024000000403E8
:1000F00009042203410072006400750069006E006B
:100100006F0020004C0065006F006E0061007200FF
:1001100064006F00180341007200640075006900FC
:100120006E006F0020004C004C00430012010002E2
:10013000000000404123368000010102000112014D
:10014000000202000040412336800001010200014C
:1001500000C18081C105010902A1010901A1008539
:100160000105091901290315002501950375018170
:10017000029501750581030501093009310938151A
:1001800081257F750895038106C0C005010906A178
:10019000018502050719E029E7150025017501957C
:1001A00008810295017508810395067508150025DB
:1001B000650507190029658100C0090402000103D3
:1001C00000000009210101000122650007058403E8
:1001D00040000100000000000000002A2B28000061
:1001E000000000000000000000000000000000000F
:1001F0000000002C9EB4A0A1A2A434A6A7A5AE36F0
:100200002D3738271E1F20212223242526B333B65D
:100210002EB7B89F8485868788898A8B8C8D8E8F30
:10022000909192939495969798999A9B9C9D2F3133
:1002300030A3AD350405060708090A0B0C0D0E0F97
:10024000101112131415161718191A1B1C1DAFB113
:10025000B0B50000AC0173034B0711241FBECFEFF4
:10026000DAE0DEBFCDBF11E0A0E0B1E0E8EBF0E105
:1002700002C005900D92A033B107D9F711E0A0E3B9
:10028000B1E001C01D92A13AB107E1F712E0CAE561
:10029000D2E004C02297FE010E945608C435D1075F
:1002A000C9F70E9407060C9457010C940000F894BB
:1002B0000C945A08089584E791E060E071E00E9490
:1002C000BD020895209170013091710180917201F9
:1002D00090917301281B390B2F733070C901089559
:1002E00020917001309171018091720190917301A0
:1002F0002817390719F42FEF3FEF09C0E091720179
:10030000F0917301E05DFE4F8081282F30E0C9013C
:100310000895209170013091710180917201909146
:1003200073012817390719F42FEF3FEF13C0E0913D
:100330007201F0917301E05DFE4F208180917201A6
:100340009091730101968F739070909373018093D5
:10035000720130E0C9010895109277011092760180
:1003600088EE93E0A0E0B0E080937801909379016B
:10037000A0937A01B0937B0184E191E090937501A1
:100380008093740108950F931F93DF93CF930F927F
:10039000CDB7DEB78C01698380910D01882369F0A8
:1003A00083E0BE016F5F7F4F41E050E00E94920307
:1003B0001816190614F49C0107C081E090E0F801BA
:1003C0009383828320E030E0C9010F90CF91DF91C9
:1003D0001F910F91089583E00E9469030895CF93C0
:1003E000DF9312C082E00E94F4022FEF8F3F92074A
:1003F000C9F0E0917001F0917101E05DFE4F8083E2
:10040000D0937101C0937001C0917001D0917101BE
:100410002196CF73D0708091720190917301C817AB
:10042000D90701F7DF91CF910895FC0180818E5F9C
:10043000808380E86CEA70E042E450E00E940D03A3
:100440000895FC0181819081913A59F4813209F03B
:100450004CC080E066E071E047E050E00E940D0390
:1004600042C0913209F041C0803239F486E091E017
:1004700067E070E00E94510336C0823209F035C057
:10048000828180930D018091060190910701A091D6
:100490000801B0910901805B9440A040B04019F57B
:1004A00080910D0180FD12C087E797E790930108C6
:1004B000809300082BE088E190E00FB6F894A895AF
:1004C000809360000FBE209360000DC088E10FB6DE
:1004D000F89480936000109260000FBEA89510926F
:1004E00001081092000881E0089580E00895CF92FD
:1004F000DF92EF92FF920F931F93CF93DF937C01D4
:100500006B018A01C0E0D0E00FC0D6016D916D0192
:10051000D701ED91FC910190F081E02DC701099583
:10052000C80FD91F015010400115110571F7CE01F8
:10053000DF91CF911F910F91FF90EF90DF90CF90BF
:100540000895CF93DF93EC016115710519F420E054
:1005500030E00FC0DB010D900020E9F71197A61BDA
:10056000B70BE881F9810280F381E02DAD01099597
:100570009C01C901DF91CF9108950E94A1020895C5
:10058000282F809184018823C1F057FF1AC015C01D
:100590002898909383018091F1008193E217F307EB
:1005A000B9F74115510539F08091F200882319F40B
:1005B0008BE68093E800AFBF02C04FEF5FEFCA0148
:1005C0000895AFB7F89427702093E9008091F20066
:1005D000282F30E0241735070CF4A901FB019B01FB
:1005E000240F311D94E6DACFDF93CF930F92CDB76E
:1005F000DEB7BE016F5F7F4F41E050E00E94C00256
:10060000019719F02FEF3FEF03C08981282F30E0C9
:10061000C9010F90CF91DF910895FF920F931F931F
:10062000F82E142F052F4091870150918801212F1A
:10063000302FC901DC01FB016EEF29C0F7FE02C0BB
:10064000949101C0908120918501309186012417F9
:100650003507ACF48091E8008570E1F38091E80003
:1006600082FF03C02FEF3FEF17C09093F100C90145
:1006700001968F739070892B11F46093E8002F5FBF
:100680003F4F309386012093850111973196109743
:10069000A9F6812F902F9C01C9011F910F91FF9006
:1006A00008959C018091E80082FFFCCFF901260F9C
:1006B000311D03C08091F1008193E217F307D1F758
:1006C000289884E6809383018BEF8093E800CB0128
:1006D00008958093E9008091F200882319F08AE35D
:1006E0008093E800089508951092840181E080933A
:1006F000D70080EA8093D80082E189BD09B400FE6A
:10070000FDCF61E070E080E090E00E94620680E949
:100710008093D8008CE08093E2001092E000559A1C
:10072000209A08955F926F927F928F929F92AF92DC
:10073000BF92CF92DF92EF92FF920F931F93CF93CE
:10074000DF93E82E842E752E80918401882371F129
:100750008B01242F352FC901EC017AEFF72E67E0CA
:10076000962E9E2050E4552E8E2D90E040E2A42E31
:10077000B12CA822B9223AE3632E20E4C22ED12C58
:10078000C822D92258C09FB7F8949092E90080916E
:10079000E80085FD02C020E004C08091F200252D14
:1007A000281B9FBF222361F4FA9419F42FEF3FEF27
:1007B0004DC061E070E080E090E00E9462063BC0C6
:1007C000822F90E0C817D9070CF42C2FC21BD10937
:1007D0004FB7F8949092E900A114B10421F406C037
:1007E0001092F10021502223D9F719C0E7FC03C071
:1007F000F801922F10C0C801322F06C0FC010196EB
:10080000E491E093F10031503323C1F706C08191A8
:100810008093F10091509923D1F7020F111D80911F
:10082000E80085FF05C0209729F4C114D10411F018
:100830006092E8004FBF209709F0A5CF5D9884E64D
:1008400080938201282D372DC9019C01C901DF91B8
:10085000CF911F910F91FF90EF90DF90CF90BF90BD
:10086000AF909F908F907F906F905F9008951F92B0
:100870000F920FB60F9211242F933F934F935F93D4
:100880006F937F938F939F93AF93BF93EF93FF9358
:100890008091E1001092E100982F83FF0FC0109229
:1008A000E90081E08093EB001092EC0082E38093FA
:1008B000ED001092840188E08093F00092FF34C034
:1008C00083E08093E9008091F200882319F08AE3A5
:1008D0008093E8008FB7F89492E09093E9009091AC
:1008E000F2008FBF992321F084E791E00E94EF018D
:1008F00080918201882351F0809182018150809300
:10090000820180918201882309F45D9A809183019C
:10091000882351F0809183018150809383018091DD
:100920008301882309F4289AFF91EF91BF91AF9139
:100930009F918F917F916F915F914F913F912F91F7
:100940000F900FBE0F901F9018950F931F93DF937A
:10095000CF930F92CDB7DEB719828E010F5F1F4F75
:10096000C8010E941502C8010E944808898190E0D0
:100970000F90CF91DF911F910F9108951F920F92C9
:100980000FB60F921124EF92FF921F932F933F9374
:100990004F935F936F937F938F939F93AF93BF9387
:1009A000EF93FF93DF93CF93CDB7DEB76197DEBFB1
:1009B000CDBF1092E9008091E80083FF0FC1FE01D6
:1009C00031969E01275F3F4F03C08091F1008193D4
:1009D000E217F307D1F7289884E68093830182EF2A
:1009E0008093E800998197FF05C08091E80080FF1F
:1009F000FCCF03C08EEF8093E800292F30E0C901BF
:100A000080769070892B09F0C2C08A81882329F4EE
:100A10001092F1001092F100D6C0813009F4D3C0D9
:100A2000833009F4D0C0853049F48091E80080FF1C
:100A3000FCCF8B8180688093E300C5C0863009F0CD
:100A40007CC01C81EF80F8841230C1F51092E9005F
:100A500010928601109285011092880110928701F0
:100A60000E94A50499E0FE013996DF01292F1D920D
:100A70002A95E9F799871A8791E09E8790E8988BE5
:100A80009AEF998B2091850130918601275F3F4F26
:100A90003C872B878D871092E90010928601109277
:100AA0008501F0928801E092870180E0BF0149E072
:100AB00050E00E940D030E94A50485C01092E90039
:100AC0001092860110928501F0928801E0928701D0
:100AD000123241F482E290E00E944008892B09F42E
:100AE00076C071C0113079F488E0E816F10419F489
:100AF00081E08093890180918901882309F06BC08E
:100B0000ECE2F1E013C0133009F061C08B8188235F
:100B100019F4EEEEF0E00AC0823019F4E2EFF0E0F2
:100B200005C0813009F053C0E4E1F1E0449180E870
:100B3000BF0150E00E940D0346C0873009F447C052
:100B4000883021F481E08093F1003DC08930D9F5EF
:100B500023703070232BD9F5E1E5F1E091E031E02D
:100B600026E39093E9003093EB0084918093EC00AE
:100B70002093ED009F5F3196953099F78EE7809333
:100B8000EA001092EA008B81809384011CC08F815F
:100B900098851092E9001092860110928501909339
:100BA0008801809387018D81882329F4CE010196E5
:100BB0000E94210206C0823051F4CE0101960E94AB
:100BC0001107882321F08EEF8093E80007C081E2AF
:100BD0008093EB0003C0EEE3F1E0A8CF6196DEBFA7
:100BE000CDBFCF91DF91FF91EF91BF91AF919F91D9
:100BF0008F917F916F915F914F913F912F911F91B5
:100C0000FF90EF900F900FBE0F901F901895CF930D
:100C1000DF930E94BB068AE891E00E9474030E9461
:100C20005A01C0E0D0E00E945B012097E1F30E94EE
:100C30000000F9CF1F920F920FB60F9211242F933D
:100C40003F938F939F93AF93BF9380918F01909128
:100C50009001A0919101B091920130919301019680
:100C6000A11DB11D232F2D5F2D3720F02D5701968B
:100C7000A11DB11D2093930180938F01909390014A
:100C8000A0939101B093920180918B0190918C017E
:100C9000A0918D01B0918E010196A11DB11D80938F
:100CA0008B0190938C01A0938D01B0938E01BF9125
:100CB000AF919F918F913F912F910F900FBE0F9009
:100CC0001F9018959B01AC017FB7F89480918B0120
:100CD00090918C01A0918D01B0918E0166B5A89B79
:100CE00005C06F3F19F00196A11DB11D7FBFBA2F3E
:100CF000A92F982F8827860F911DA11DB11D62E095
:100D0000880F991FAA1FBB1F6A95D1F7BC012DC080
:100D1000FFB7F89480918B0190918C01A0918D0187
:100D2000B0918E01E6B5A89B05C0EF3F19F0019682
:100D3000A11DB11DFFBFBA2FA92F982F88278E0F95
:100D4000911DA11DB11DE2E0880F991FAA1FBB1FB5
:100D5000EA95D1F7861B970B885E9340C8F2215025
:100D600030404040504068517C4F211531054105CD
:100D7000510571F60895789484B5826084BD84B578
:100D8000816084BD85B5826085BD85B5816085BD86
:100D9000EEE6F0E0808181608083E1E8F0E010829F
:100DA000808182608083808181608083E0E8F0E0E0
:100DB000808181608083E1E9F0E0808182608083CE
:100DC000808181608083E0E9F0E0808181608083C0
:100DD000E1ECF0E0808184608083808182608083A8
:100DE000808181608083E3ECF0E08081816080839A
:100DF000E0ECF0E0808182608083E2ECF0E08081D2
:100E000081608083EAE7F0E0808184608083808174
:100E1000826080838081816080838081806880831C
:100E20000895FC0191818081813A31F4913089F0FB
:100E300080E0933089F40DC0813269F49B3021F455
:100E4000828180930E0105C09A3029F482818093BB
:100E50000F0181E0089580E00895EF92FF920F93D3
:100E60001F938C01E62EDC01ED91FC910480F5814D
:100E7000E02D0995F82ED801ED91FC910680F781BF
:100E8000E02DC8016E2D09958F2D90E01F910F91D7
:100E9000FF90EF9008951092940110929801109293
:100EA000970186E291E090939601809395010895D1
:100EB000EF92FF920F931F93DF93CF930F92CDB7D3
:100EC000DEB789838B017A0184E0BE016F5F7F4FBB
:100ED00041E050E00E94920384E4B801A7010E941F
:100EE00092030F90CF91DF911F910F91FF90EF90A0
:100EF000089582E048E050E00E9458070895FC0100
:100F000016821782108611861286138614823496F2
:100F1000BF010E9479070895DC01683810F0685815
:100F200029C0E62FF0E067FF13C0E058F04081E0F1
:100F300090E002C0880F991FEA95E2F78095149619
:100F40002C911497282314962C93149760E012C0C8
:100F5000ED52FE4F6491662319F420E030E01DC08D
:100F600067FF08C014968C9114978D7F14968C930C
:100F700014976F77FD0190E0662321F08681861734
:100F800009F416829F5F31969630B1F7CD01149621
:100F9000BD010E94790721E030E0C9010895CF9397
:100FA000DF93DC01683810F0685825C0E62FF0E0C8
:100FB00067FF12C0E058F04081E090E002C0880F67
:100FC000991FEA95E2F714962C911497282B149602
:100FD0002C93149760E00FC0ED52FE4F649166238E
:100FE000D9F167FF08C014968C911497826014960B
:100FF0008C9314976F7716968C9116978617A9F194
:1010000017968C911797861781F118968C911897DF
:10101000861759F119968C911997861731F11A96FE
:101020008C911A97861709F11B968C911B9786173E
:10103000E1F0ED01E0E0F0E09E2F8E81882321F4C5
:10104000EA0FFB1F668306C09F5F31962196E6304C
:10105000F10591F7963049F481E090E013969C9366
:101060008E93129720E030E007C0CD011496BD01A9
:101070000E94790721E030E0C901DF91CF91089506
:1010800080E865E571E045E650E00E940D030895B3
:10109000FC0180818F5F808380E86AEB71E049E129
:1010A00050E00E940D030895EE0FFF1F0590F4918C
:0810B000E02D0994F894FFCF34
:1010B80068656C6C6F0000E1000000000000010131
:1010C80000000000C3017702620189017001EB0191
:1010D800EF01000000002D077702CF078C077F077C
:00000001FF
