:100000000C9403010C9430010C9430010C943001D9
:100010000C9430010C9430010C9430010C9430019C
:100020000C9430010C9430010C9430010C9430018C
:100030000C9430010C9430010C9430010C9430017C
:100040000C9430010C9430010C9430010C9430016C
:100050000C9430010C9430010C9430010C947B0111
:100060000C9430010C9465030C94AD040C94300195
:100070000C9430010C9430010C9430010C9430013C
:100080000C9430010C9430010C9430010C9430012C
:100090000C94A5030C94EC040C9430010C943001E6
:1000A0000C9430010C9430010C9430010C9430010C
:1000B0000C9430010C9430010C9430010C943001FC
:1000C0000C9430010C9430010C9430010C94E50335
:1000D0000C942B050C9430010C9425040C946A05A7
:1000E0000C94300100002100240027002A002D007C
:1000F0003000330001010000040107010A01000083
:100100002200250028002B002E00310034000201BF
:100110000000050108010B0100002000230026005B
:1001200029002C002F00320000010000030106010D
:10013000090105050505070508080808020202026D
:100140000A0A080804040404010101010101010173
:100150000303030303030303040707070C0C0C0C3E
:100160000C0C0C0C02020202060606060606060627
:100170000B0B0B0B0B0B0B0B0102102020080810B4
:100180002040102040800201020108040201010207
:1001900004081020408080402010080402018004E0
:1001A000020180402010080402010804020101023B
:1001B0000408102040800102040810204080000044
:1001C000090A02080B0C0D070603040100000000D9
:1001D000000000000000000000000000000000001F
:1001E0000000000000000000000011100F000000DF
:1001F00000000000000000000000000000000000FF
:1002000000000000DA0611241FBECFEFD1E2DEBFEE
:10021000CDBF00E00CBF12E0A0E0B2E0E4E8F1E105
:1002200000E00BBF02C007900D92A232B107D9F7D0
:100230001BBE14E0A2E2B2E001C01D92A33DB107D3
:10024000E1F712E0C6E0D2E004C02297FE010E946E
:10025000BC08C430D107C9F70E9489080C94320148
:100260000C940000F8940C94C0080F931F938DE039
:1002700061E00E9431030BE414E0C80160E072E029
:100280000E94760868EE73E080E090E00E94C3016F
:10029000C8016AE072E00E9476086CED75E080E0CB
:1002A00090E00E94C3011F910F9108958DE061E0DD
:1002B0000E947E028BE494E040E052EC61E070E04A
:1002C0000E94A9058DE061E00E94310364E670E0C0
:1002D00080E090E00E94C3018DE060E00E94310365
:1002E0006CED75E080E090E00E94C3018DE061E07C
:1002F0000E94310308951F920F920FB60F9211249E
:100300002F933F938F939F93AF93BF938091260238
:1003100090912702A0912802B091290230912A02DF
:100320000196A11DB11D232F2D5F2D3720F02D57D4
:100330000196A11DB11D20932A028093260290935D
:100340002702A0932802B093290280912202909163
:100350002302A0912402B09125020196A11DB11D96
:100360008093220290932302A0932402B09325024B
:10037000BF91AF919F918F913F912F910F900FBEA1
:100380000F901F9018959B01AC017FB7F894809156
:10039000220290912302A0912402B091250266B519
:1003A000A89B05C06F3F19F00196A11DB11D7FBF2D
:1003B000BA2FA92F982F8827860F911DA11DB11D37
:1003C00062E0880F991FAA1FBB1F6A95D1F7BC0175
:1003D0002DC0FFB7F8948091220290912302A09142
:1003E0002402B0912502E6B5A89B05C0EF3F19F0A5
:1003F0000196A11DB11DFFBFBA2FA92F982F8827E5
:100400008E0F911DA11DB11DE2E0880F991FAA1F3B
:10041000BB1FEA95D1F7861B970B885E9340C8F205
:10042000215030404040504068517C4F21153105EB
:100430004105510571F60895789484B5826084BDB4
:1004400084B5816084BD85B5826085BD85B58160D8
:1004500085BDEEE6F0E0808181608083E1E8F0E038
:100460001082808182608083808181608083E0E867
:10047000F0E0808181608083E1EBF0E08081846046
:100480008083E0EBF0E0808181608083E1E9F0E04F
:10049000808182608083808181608083E0E9F0E0F8
:1004A000808181608083E1EAF0E0808182608083E6
:1004B000808181608083E0EAF0E0808181608083D8
:1004C000E1E2F1E0808182608083808181608083CD
:1004D000E0E2F1E0808181608083EAE7F0E0808102
:1004E000846080838081826080838081816080835A
:1004F0008081806880831092C1000895CF93DF933C
:10050000482F50E0CA0188589E4FFC0134914E5C40
:100510005E4FFA018491882369F190E0880F991F5A
:10052000FC01EC51FF4FA591B491FC01E250FF4F4B
:10053000C591D491662351F42FB7F8948C91932FE1
:10054000909589238C93888189230BC0623061F454
:100550002FB7F8948C91932F909589238C93888151
:10056000832B88832FBF06C09FB7F8948C91832B71
:100570008C939FBFDF91CF910895893009F449C0D2
:100580008A30A0F4843051F1853040F4823079F122
:10059000833000F5813009F063C026C0873079F1DF
:1005A000883098F5863009F05BC025C08D3009F49D
:1005B00042C08E3028F48B30B1F18C30C0F52DC0A4
:1005C000803109F442C0813109F445C08F3009F00F
:1005D00047C037C0809180008F7703C08091800032
:1005E0008F7D80938000089584B58F7702C084B595
:1005F0008F7D84BD08958091B0008F7703C0809176
:10060000B0008F7D8093B0000895809190008F7727
:1006100007C0809190008F7D03C080919000877FFC
:100620008093900008958091A0008F7707C08091FB
:10063000A0008F7D03C08091A000877F8093A000E1
:100640000895809120018F7703C0809120018F7DD4
:1006500080932001089580912001877F809320015D
:100660000895FF920F931F93F62E482F50E0CA0172
:1006700082549E4FFC012491CA0188589E4FFC0170
:1006800014914E5C5E4FFA0104910023C9F02223BD
:1006900019F0822F0E94BD02E02FF0E0EE0FFF1F45
:1006A000E250FF4FA591B4919FB7F894FF2021F439
:1006B0008C911095812302C08C91812B8C939FBFCC
:1006C0001F910F91FF90089508951F920F920FB6FA
:1006D0000F920BB60F9211242F933F934F938F934A
:1006E0009F93EF93FF938091C00082FD1DC04091C6
:1006F000C60020916B0230916C022F5F3F4F2F7329
:10070000307080916D0290916E022817390771F058
:10071000E0916B02F0916C02E55DFD4F40833093F8
:100720006C0220936B0202C08091C600FF91EF9192
:100730009F918F914F913F912F910F900BBE0F90F2
:100740000FBE0F901F90189508951F920F920FB62D
:100750000F920BB60F9211242F933F934F938F93C9
:100760009F93EF93FF938091C80082FD1DC040913D
:10077000CE002091F3023091F4022F5F3F4F2F7390
:1007800030708091F5029091F6022817390771F0C8
:10079000E091F302F091F402ED54FD4F4083309369
:1007A000F4022093F30202C08091CE00FF91EF91FA
:1007B0009F918F914F913F912F910F900BBE0F9072
:1007C0000FBE0F901F90189508951F920F920FB6AD
:1007D0000F920BB60F9211242F933F934F938F9349
:1007E0009F93EF93FF938091D00082FD1DC04091B5
:1007F000D60020917B0330917C032F5F3F4F2F73F6
:10080000307080917D0390917E032817390771F035
:10081000E0917B03F0917C03E55CFC4F40833093D7
:100820007C0320937B0302C08091D600FF91EF915F
:100830009F918F914F913F912F910F900BBE0F90F1
:100840000FBE0F901F90189508951F920F920FB62C
:100850000F920BB60F9211242F933F934F938F93C8
:100860009F93EF93FF938091300182FD1DC04091D3
:10087000360120910304309104042F5F3F4F2F7302
:10088000307080910504909106042817390771F0A3
:10089000E0910304F0910404ED53FC4F4083309346
:1008A00004042093030402C080913601FF91EF916C
:1008B0009F918F914F913F912F910F900BBE0F9071
:1008C0000FBE0F901F901895E0915704F0915804B7
:1008D000E05CFF4F8191919120813181821B930BCC
:1008E0008F739070892B11F00E946403E09179045A
:1008F000F0917A04E05CFF4F8191919120813181E8
:10090000821B930B8F739070892B11F00E94A403AC
:10091000E0919B04F0919C04E05CFF4F81919191E8
:1009200020813181821B930B8F739070892B11F082
:100930000E94E403E091BD04F091BE04E05CFF4F2F
:100940008191919120813181821B930B8F739070E3
:10095000892B11F00E94240408951F920F920FB664
:100960000F920BB60F9211242F933F938F939F9367
:10097000EF93FF932091AF023091B0028091B102CA
:100980009091B2022817390731F48091C1008F7D10
:100990008093C10014C0E091B102F091B202E1591C
:1009A000FD4F20818091B1029091B20201968F7328
:1009B00090709093B2028093B1022093C600FF9191
:1009C000EF919F918F913F912F910F900BBE0F90C0
:1009D0000FBE0F901F9018951F920F920FB60F9297
:1009E0000BB60F9211242F933F938F939F93EF9306
:1009F000FF93209137033091380380913903909110
:100A00003A032817390731F48091C9008F7D80930C
:100A1000C90014C0E0913903F0913A03E950FD4F49
:100A200020818091390390913A0301968F739070E1
:100A300090933A03809339032093CE00FF91EF9176
:100A40009F918F913F912F910F900BBE0F900FBEF2
:100A50000F901F9018951F920F920FB60F920BB622
:100A60000F9211242F933F938F939F93EF93FF93B4
:100A70002091BF033091C0038091C1039091C203C4
:100A80002817390731F48091D1008F7D8093D100F0
:100A900014C0E091C103F091C203E158FC4F2081E2
:100AA0008091C1039091C20301968F7390709093CF
:100AB000C2038093C1032093D600FF91EF919F91D1
:100AC0008F913F912F910F900BBE0F900FBE0F9003
:100AD0001F9018951F920F920FB60F920BB60F92A0
:100AE00011242F933F938F939F93EF93FF93209124
:100AF0004704309148048091490490914A04281792
:100B0000390731F4809131018F7D8093310114C018
:100B1000E0914904F0914A04E95FFB4F2081809104
:100B2000490490914A0401968F73907090934A04FF
:100B30008093490420933601FF91EF919F918F910B
:100B40003F912F910F900BBE0F900FBE0F901F90F3
:100B50001895AF92BF92DF92EF92FF920F931F937F
:100B6000CF93DF93EC017A018B01DD24403081EEDD
:100B7000580780E0680780E0780711F0DD24D394FF
:100B800091E0A92EB12CEC89FD89DD2069F0C50129
:100B900008A002C0880F991F0A94E2F7808360E0E2
:100BA00079E08DE390E005C0108260E874E88EE1A2
:100BB00090E0A80197010E949808215030404040E1
:100BC0005040569547953795279580E12030380756
:100BD00020F0DD2011F0DD24D6CFE889F9893083BB
:100BE000EA89FB89208319A2EE89FF89408121E0EF
:100BF00030E0C9010C8C02C0880F991F0A94E2F7FB
:100C0000482B4083EE89FF894081C9010D8C02C0C9
:100C1000880F991F0A94E2F7482B4083EE89FF89D9
:100C20004081C9010E8C02C0880F991F0A94E2F717
:100C3000482B4083EE89FF8980810F8C02C0220FF0
:100C4000331F0A94E2F7209528232083DF91CF9168
:100C50001F910F91FF90EF90DF90BF90AF9008959C
:100C6000DC011C96ED91FC911D97E05CFF4F2191FA
:100C7000319180819181281B390B2F733070C9010C
:100C80000895DC011C96ED91FC911D97E05CFF4FEF
:100C900020813181E054F040DF01AE5BBF4F8D9188
:100CA0009C9111972817390719F42FEF3FEF07C0D0
:100CB0008D919C91E80FF91F8081282F30E0C901A8
:100CC0000895DC011C96ED91FC911D97E05CFF4FAF
:100CD00020813181E054F040DF01AE5BBF4F8D9148
:100CE0009C9111972817390719F42FEF3FEF10C087
:100CF0008D919C911197E80FF91F20818D919C9106
:100D0000119701968F73907011969C938E9330E09B
:100D1000C9010895DC0191968C919197882339F04F
:100D20005496ED91FC915597808186FFF9CF91966D
:100D30001C920895CF93DF93EC01EE85FF85E05C74
:100D4000FF4F20813181E054F0402F5F3F4F2F73E0
:100D50003070DF01AE5BBF4F8D919C9111972817CA
:100D60003907D1F3E05CFF4F80819181E054F0407E
:100D7000E80FF91F6083EE85FF85E05CFF4F31834C
:100D80002083EE89FF89208181E090E00F8C02C0F2
:100D9000880F991F0A94E2F7282B208381E089A30A
:100DA000EC89FD8980818064808381E090E0DF911F
:100DB000CF9108951F9310924E0410924D0428EE87
:100DC00033E040E050E020934F04309350044093D0
:100DD00051045093520466E172E070934C046093A6
:100DE0004B048BE292E090935804809357048FE673
:100DF00092E090935A048093590485EC90E090938C
:100E00005C0480935B0484EC90E090935E04809398
:100E10005D0480EC90E09093600480935F0481EC2B
:100E200090E0909362048093610482EC90E0909350
:100E300064048093630486EC90E09093660480934E
:100E4000650414E010936704B3E0B0936804A7E06E
:100E5000A0936904F5E0F0936A04E1E0E0936B0489
:100E60001092700410926F042093710430937204F6
:100E7000409373045093740470936E0460936D04F4
:100E800083EB92E090937A048093790487EF92E069
:100E900090937C0480937B048DEC90E090937E048F
:100EA00080937D048CEC90E09093800480937F0489
:100EB00088EC90E0909382048093810489EC90E028
:100EC00090938404809383048AEC90E0909386044A
:100ED000809385048EEC90E090938804809387043F
:100EE00010938904B0938A04A0938B04F0938C042C
:100EF000E0938D0410929204109291042093930435
:100F00003093940440939504509396047093900406
:100F100060938F048BE393E090939C0480939B04F5
:100F20008FE793E090939E0480939D0485ED90E07D
:100F30009093A00480939F0484ED90E09093A2048A
:100F40008093A10480ED90E09093A4048093A30487
:100F500081ED90E09093A6048093A50482ED90E04B
:100F60009093A8048093A70486ED90E09093AA0440
:100F70008093A9041093AB04B093AC04A093AD0488
:100F8000F093AE04E093AF041092B4041092B30453
:100F90002093B5043093B6044093B7045093B8043B
:100FA0007093B2046093B10483EC93E09093BE0419
:100FB0008093BD0487E094E09093C0048093BF04C5
:100FC00085E391E09093C2048093C10484E391E0AF
:100FD0009093C4048093C30480E391E09093C6048B
:100FE0008093C50481E391E09093C8048093C70483
:100FF00082E391E09093CA048093C90486E391E070
:101000009093CC048093CB041093CD04B093CE0482
:10101000A093CF04F093D004E093D1041F910895DE
:10102000CF92DF92EF92FF920F931F93CF93DF93B4
:101030007C016B018A01C0E0D0E00FC0D6016D9148
:101040006D01D701ED91FC910190F081E02DC70178
:101050001995C80FD91F015010400115110571F7DE
:10106000CE01DF91CF911F910F91FF90EF90DF9014
:10107000CF900895EF92FF920F931F938C01DC01A4
:10108000ED91FC910190F081E02D6DE019957C01CE
:10109000D801ED91FC910190F081E02DC8016AE04A
:1010A00019959C012E0D3F1DC9011F910F91FF90B5
:1010B000EF900895CF93DF93EC016115710519F45A
:1010C00020E030E00FC0DB010D900020E9F7119720
:1010D000A61BB70BE881F9810280F381E02DAD01F9
:1010E00019959C01C901DF91CF910895EF92FF926C
:1010F0000F931F937C010E945A088C01C7010E9424
:101100003A08080F191FC8011F910F91FF90EF9027
:101110000895CF93DF930E941C020E945601C4E6FB
:10112000D4E00E9435012097E1F30E946404F9CFD6
:10113000A1E21A2EAA1BBB1BFD010DC0AA1FBB1FDB
:10114000EE1FFF1FA217B307E407F50720F0A21B4D
:10115000B30BE40BF50B661F771F881F991F1A94BA
:1011600069F760957095809590959B01AC01BD01E4
:10117000CF010895EE0FFF1F0590F491E02D199413
:04118000F894FFCF11
:1011840048656C6C6F204461640042796520446159
:101194006400000000009A0610083006610641064B
:0211A4008A06B9
:00000001FF
